{
  "contractName": "Shop",
  "abi": [
    {
      "anonymous": false,
      "inputs": [
        {
          "indexed": false,
          "internalType": "string",
          "name": "description",
          "type": "string"
        }
      ],
      "name": "LogNewAlert",
      "type": "event"
    },
    {
      "inputs": [
        {
          "internalType": "uint256",
          "name": "",
          "type": "uint256"
        }
      ],
      "name": "allProducts",
      "outputs": [
        {
          "internalType": "uint256",
          "name": "productId",
          "type": "uint256"
        },
        {
          "internalType": "string",
          "name": "productName",
          "type": "string"
        },
        {
          "internalType": "uint256",
          "name": "price",
          "type": "uint256"
        },
        {
          "internalType": "address payable",
          "name": "seller",
          "type": "address"
        }
      ],
      "stateMutability": "view",
      "type": "function",
      "constant": true
    },
    {
      "inputs": [],
      "name": "currProdId",
      "outputs": [
        {
          "internalType": "uint256",
          "name": "",
          "type": "uint256"
        }
      ],
      "stateMutability": "view",
      "type": "function",
      "constant": true
    },
    {
      "inputs": [
        {
          "internalType": "string",
          "name": "_productName",
          "type": "string"
        },
        {
          "internalType": "uint256",
          "name": "_price",
          "type": "uint256"
        }
      ],
      "name": "addProduct",
      "outputs": [],
      "stateMutability": "nonpayable",
      "type": "function"
    },
    {
      "inputs": [
        {
          "internalType": "uint256",
          "name": "_productId",
          "type": "uint256"
        }
      ],
      "name": "buyProduct",
      "outputs": [],
      "stateMutability": "payable",
      "type": "function",
      "payable": true
    },
    {
      "inputs": [],
      "name": "getProducts",
      "outputs": [
        {
          "components": [
            {
              "internalType": "uint256",
              "name": "productId",
              "type": "uint256"
            },
            {
              "internalType": "string",
              "name": "productName",
              "type": "string"
            },
            {
              "internalType": "uint256",
              "name": "price",
              "type": "uint256"
            },
            {
              "internalType": "address payable",
              "name": "seller",
              "type": "address"
            }
          ],
          "internalType": "struct Shop.Product[]",
          "name": "",
          "type": "tuple[]"
        }
      ],
      "stateMutability": "view",
      "type": "function",
      "constant": true
    }
  ],
  "bytecode": "0x60806040526000805534801561001457600080fd5b50611021806100246000396000f3fe60806040526004361061004a5760003560e01c80638642269e1461004f578063b15247d91461006b578063c29b2f2014610094578063cb8a591f146100bf578063cfaaef56146100ea575b600080fd5b610069600480360381019061006491906108ed565b61012a565b005b34801561007757600080fd5b50610092600480360381019061008d9190610a60565b6103e3565b005b3480156100a057600080fd5b506100a961059a565b6040516100b69190610cb9565b60405180910390f35b3480156100cb57600080fd5b506100d46106f5565b6040516100e19190610cea565b60405180910390f35b3480156100f657600080fd5b50610111600480360381019061010c91906108ed565b6106fb565b6040516101219493929190610d5e565b60405180910390f35b60016000828152602001908152602001600020600201543414610182576040517f08c379a000000000000000000000000000000000000000000000000000000000815260040161017990610e1c565b60405180910390fd5b60006001600083815260200190815260200160002060030160009054906101000a900473ffffffffffffffffffffffffffffffffffffffff16905060008173ffffffffffffffffffffffffffffffffffffffff166108fc349081150290604051600060405180830381858888f19350505050905080610236576040517f08c379a000000000000000000000000000000000000000000000000000000000815260040161022d90610e88565b60405180910390fd5b600060405180604001604052808581526020013373ffffffffffffffffffffffffffffffffffffffff168152509050600360003373ffffffffffffffffffffffffffffffffffffffff1673ffffffffffffffffffffffffffffffffffffffff1681526020019081526020016000208190806001815401808255809150506001900390600052602060002090600202016000909190919091506000820151816000015560208201518160010160006101000a81548173ffffffffffffffffffffffffffffffffffffffff021916908373ffffffffffffffffffffffffffffffffffffffff1602179055505050600360008473ffffffffffffffffffffffffffffffffffffffff1673ffffffffffffffffffffffffffffffffffffffff1681526020019081526020016000208190806001815401808255809150506001900390600052602060002090600202016000909190919091506000820151816000015560208201518160010160006101000a81548173ffffffffffffffffffffffffffffffffffffffff021916908373ffffffffffffffffffffffffffffffffffffffff160217905550505050505050565b60006103ed6107e3565b9050600060405180608001604052808381526020018581526020018481526020013373ffffffffffffffffffffffffffffffffffffffff1681525090508060016000848152602001908152602001600020600082015181600001556020820151816001019080519060200190610464929190610800565b506040820151816002015560608201518160030160006101000a81548173ffffffffffffffffffffffffffffffffffffffff021916908373ffffffffffffffffffffffffffffffffffffffff160217905550905050600281908060018154018082558091505060019003906000526020600020906004020160009091909190915060008201518160000155602082015181600101908051906020019061050b929190610800565b506040820151816002015560608201518160030160006101000a81548173ffffffffffffffffffffffffffffffffffffffff021916908373ffffffffffffffffffffffffffffffffffffffff16021790555050507fca75c80642b93c980135b8355995abae3ab06033dc81f956b3824323b4903ef560405161058c90610ef4565b60405180910390a150505050565b60606002805480602002602001604051908101604052809291908181526020016000905b828210156106ec5783829060005260206000209060040201604051806080016040529081600082015481526020016001820180546105fb90610f43565b80601f016020809104026020016040519081016040528092919081815260200182805461062790610f43565b80156106745780601f1061064957610100808354040283529160200191610674565b820191906000526020600020905b81548152906001019060200180831161065757829003601f168201915b50505050508152602001600282015481526020016003820160009054906101000a900473ffffffffffffffffffffffffffffffffffffffff1673ffffffffffffffffffffffffffffffffffffffff1673ffffffffffffffffffffffffffffffffffffffff1681525050815260200190600101906105be565b50505050905090565b60005481565b6002818154811061070b57600080fd5b906000526020600020906004020160009150905080600001549080600101805461073490610f43565b80601f016020809104026020016040519081016040528092919081815260200182805461076090610f43565b80156107ad5780601f10610782576101008083540402835291602001916107ad565b820191906000526020600020905b81548152906001019060200180831161079057829003601f168201915b5050505050908060020154908060030160009054906101000a900473ffffffffffffffffffffffffffffffffffffffff16905084565b60008060008154809291906107f790610fa3565b91905055905090565b82805461080c90610f43565b90600052602060002090601f01602090048101928261082e5760008555610875565b82601f1061084757805160ff1916838001178555610875565b82800160010185558215610875579182015b82811115610874578251825591602001919060010190610859565b5b5090506108829190610886565b5090565b5b8082111561089f576000816000905550600101610887565b5090565b6000604051905090565b600080fd5b600080fd5b6000819050919050565b6108ca816108b7565b81146108d557600080fd5b50565b6000813590506108e7816108c1565b92915050565b600060208284031215610903576109026108ad565b5b6000610911848285016108d8565b91505092915050565b600080fd5b600080fd5b6000601f19601f8301169050919050565b7f4e487b7100000000000000000000000000000000000000000000000000000000600052604160045260246000fd5b61096d82610924565b810181811067ffffffffffffffff8211171561098c5761098b610935565b5b80604052505050565b600061099f6108a3565b90506109ab8282610964565b919050565b600067ffffffffffffffff8211156109cb576109ca610935565b5b6109d482610924565b9050602081019050919050565b82818337600083830152505050565b6000610a036109fe846109b0565b610995565b905082815260208101848484011115610a1f57610a1e61091f565b5b610a2a8482856109e1565b509392505050565b600082601f830112610a4757610a4661091a565b5b8135610a578482602086016109f0565b91505092915050565b60008060408385031215610a7757610a766108ad565b5b600083013567ffffffffffffffff811115610a9557610a946108b2565b5b610aa185828601610a32565b9250506020610ab2858286016108d8565b9150509250929050565b600081519050919050565b600082825260208201905092915050565b6000819050602082019050919050565b610af1816108b7565b82525050565b600081519050919050565b600082825260208201905092915050565b60005b83811015610b31578082015181840152602081019050610b16565b83811115610b40576000848401525b50505050565b6000610b5182610af7565b610b5b8185610b02565b9350610b6b818560208601610b13565b610b7481610924565b840191505092915050565b600073ffffffffffffffffffffffffffffffffffffffff82169050919050565b6000610baa82610b7f565b9050919050565b610bba81610b9f565b82525050565b6000608083016000830151610bd86000860182610ae8565b5060208301518482036020860152610bf08282610b46565b9150506040830151610c056040860182610ae8565b506060830151610c186060860182610bb1565b508091505092915050565b6000610c2f8383610bc0565b905092915050565b6000602082019050919050565b6000610c4f82610abc565b610c598185610ac7565b935083602082028501610c6b85610ad8565b8060005b85811015610ca75784840389528151610c888582610c23565b9450610c9383610c37565b925060208a01995050600181019050610c6f565b50829750879550505050505092915050565b60006020820190508181036000830152610cd38184610c44565b905092915050565b610ce4816108b7565b82525050565b6000602082019050610cff6000830184610cdb565b92915050565b600082825260208201905092915050565b6000610d2182610af7565b610d2b8185610d05565b9350610d3b818560208601610b13565b610d4481610924565b840191505092915050565b610d5881610b9f565b82525050565b6000608082019050610d736000830187610cdb565b8181036020830152610d858186610d16565b9050610d946040830185610cdb565b610da16060830184610d4f565b95945050505050565b7f56616c7565204d75737420626520457175616c20746f205072696365206f662060008201527f50726f6475637400000000000000000000000000000000000000000000000000602082015250565b6000610e06602783610d05565b9150610e1182610daa565b604082019050919050565b60006020820190508181036000830152610e3581610df9565b9050919050565b7f4661696c656420746f2073656e64204574686572000000000000000000000000600082015250565b6000610e72601483610d05565b9150610e7d82610e3c565b602082019050919050565b60006020820190508181036000830152610ea181610e65565b9050919050565b7f4974656d20616464656400000000000000000000000000000000000000000000600082015250565b6000610ede600a83610d05565b9150610ee982610ea8565b602082019050919050565b60006020820190508181036000830152610f0d81610ed1565b9050919050565b7f4e487b7100000000000000000000000000000000000000000000000000000000600052602260045260246000fd5b60006002820490506001821680610f5b57607f821691505b602082108103610f6e57610f6d610f14565b5b50919050565b7f4e487b7100000000000000000000000000000000000000000000000000000000600052601160045260246000fd5b6000610fae826108b7565b91507fffffffffffffffffffffffffffffffffffffffffffffffffffffffffffffffff8203610fe057610fdf610f74565b5b60018201905091905056fea26469706673582212204ec1b0648a24ed6e9b4de8d6384f407987a6b34baac9effb2287182a970b644664736f6c634300080d0033",
  "immutableReferences": {},
  "source": "pragma solidity >=0.4.25 <0.9.0;\n\ncontract Shop {\n    event LogNewAlert(string description);\n\n    uint public currProdId = 0;\n    function getProdId() private returns (uint) {\n        return currProdId++;\n    }\n\n    struct Product {\n        uint productId;\n        string productName;\n        uint256 price;\n        address payable seller;\n    }\n\n    struct Deal {\n        uint productId;\n        address buyer;\n    }\n\n    mapping(uint => Product) products;\n    Product[] public allProducts;\n\n    mapping(address => Deal[]) deals;\n    // mapping(address => Product[]) placed;\n\n    function addProduct(\n        string memory _productName,\n        uint256 _price\n    ) public {\n        uint newID = getProdId();\n        Product memory newProduct = Product(\n            newID,\n            _productName,\n            _price,\n            payable(msg.sender)\n        );\n\n        products[newID] = newProduct;\n        // placed[msg.sender] = \n\n        allProducts.push(newProduct);\n\n        emit LogNewAlert('Item added');\n    }\n\n    function buyProduct(uint _productId) payable public {\n\n        require(msg.value == products[_productId].price, \"Value Must be Equal to Price of Product\");\n        address payable seller = products[_productId].seller;\n\n        bool sent = seller.send(msg.value);\n        require(sent, \"Failed to send Ether\");\n\n        Deal memory newDeal = Deal (_productId, msg.sender);\n\n        deals[msg.sender].push(newDeal);\n        deals[seller].push(newDeal);\n\n    }\n\n    function getProducts() public view returns (Product[] memory) {\n        return allProducts;\n    }\n}\n",
  "sourcePath": "/Users/anastet/Projects/smartContract/contracts/Shop.sol",
  "compiler": {
    "name": "solc",
    "version": "0.8.13+commit.abaa5c0e.Emscripten.clang"
  },
  "schemaVersion": "3.4.11",
  "updatedAt": "2022-12-06T11:32:38.888Z",
  "networkType": "ethereum",
  "devdoc": {
    "kind": "dev",
    "methods": {},
    "version": 1
  },
  "userdoc": {
    "kind": "user",
    "methods": {},
    "version": 1
  }
}